{
  "contractName": "Item",
  "abi": [
    {
      "inputs": [
        {
          "internalType": "contract ItemManager",
          "name": "_parentContract",
          "type": "address"
        },
        {
          "internalType": "uint256",
          "name": "_priceInWei",
          "type": "uint256"
        },
        {
          "internalType": "uint256",
          "name": "_index",
          "type": "uint256"
        }
      ],
      "stateMutability": "nonpayable",
      "type": "constructor"
    },
    {
      "stateMutability": "nonpayable",
      "type": "fallback"
    },
    {
      "inputs": [],
      "name": "index",
      "outputs": [
        {
          "internalType": "uint256",
          "name": "",
          "type": "uint256"
        }
      ],
      "stateMutability": "view",
      "type": "function"
    },
    {
      "inputs": [],
      "name": "parentContract",
      "outputs": [
        {
          "internalType": "contract ItemManager",
          "name": "",
          "type": "address"
        }
      ],
      "stateMutability": "view",
      "type": "function"
    },
    {
      "inputs": [],
      "name": "priceInWei",
      "outputs": [
        {
          "internalType": "uint256",
          "name": "",
          "type": "uint256"
        }
      ],
      "stateMutability": "view",
      "type": "function"
    },
    {
      "inputs": [],
      "name": "pricePaid",
      "outputs": [
        {
          "internalType": "uint256",
          "name": "",
          "type": "uint256"
        }
      ],
      "stateMutability": "view",
      "type": "function"
    },
    {
      "stateMutability": "payable",
      "type": "receive"
    }
  ],
  "bytecode": "0x608060405234801561001057600080fd5b50604051610835380380610835833981810160405281019061003291906100b3565b816000819055508060028190555082600360006101000a81548173ffffffffffffffffffffffffffffffffffffffff021916908373ffffffffffffffffffffffffffffffffffffffff16021790555050505061017e565b60008151905061009881610150565b92915050565b6000815190506100ad81610167565b92915050565b6000806000606084860312156100c857600080fd5b60006100d686828701610089565b93505060206100e78682870161009e565b92505060406100f88682870161009e565b9150509250925092565b600061010d82610126565b9050919050565b600061011f82610102565b9050919050565b600073ffffffffffffffffffffffffffffffffffffffff82169050919050565b6000819050919050565b61015981610114565b811461016457600080fd5b50565b61017081610146565b811461017b57600080fd5b50565b6106a88061018d6000396000f3fe6080604052600436106100435760003560e01c8063230b9da31461025b5780632986c0e5146102865780633c8da588146102b157806389794d00146102dc5761024c565b3661024c5760006001541461008d576040517f08c379a000000000000000000000000000000000000000000000000000000000815260040161008490610429565b60405180910390fd5b34600054146100d1576040517f08c379a00000000000000000000000000000000000000000000000000000000081526004016100c890610469565b60405180910390fd5b34600160008282546100e391906104cb565b925050819055506000600360009054906101000a900473ffffffffffffffffffffffffffffffffffffffff1673ffffffffffffffffffffffffffffffffffffffff16346002546040516024016101399190610489565b6040516020818303038152906040527f800fb83f000000000000000000000000000000000000000000000000000000007bffffffffffffffffffffffffffffffffffffffffffffffffffffffff19166020820180517bffffffffffffffffffffffffffffffffffffffffffffffffffffffff83818316178352505050506040516101c391906103f7565b60006040518083038185875af1925050503d8060008114610200576040519150601f19603f3d011682016040523d82523d6000602084013e610205565b606091505b5050905080610249576040517f08c379a000000000000000000000000000000000000000000000000000000000815260040161024090610449565b60405180910390fd5b50005b34801561025857600080fd5b50005b34801561026757600080fd5b50610270610307565b60405161027d919061040e565b60405180910390f35b34801561029257600080fd5b5061029b61032d565b6040516102a89190610489565b60405180910390f35b3480156102bd57600080fd5b506102c6610333565b6040516102d39190610489565b60405180910390f35b3480156102e857600080fd5b506102f1610339565b6040516102fe9190610489565b60405180910390f35b600360009054906101000a900473ffffffffffffffffffffffffffffffffffffffff1681565b60025481565b60005481565b60015481565b600061034a826104a4565b61035481856104af565b935061036481856020860161056f565b80840191505092915050565b6103798161054b565b82525050565b600061038c6015836104ba565b9150610397826105d1565b602082019050919050565b60006103af602b836104ba565b91506103ba826105fa565b604082019050919050565b60006103d2601a836104ba565b91506103dd82610649565b602082019050919050565b6103f181610541565b82525050565b6000610403828461033f565b915081905092915050565b60006020820190506104236000830184610370565b92915050565b600060208201905081810360008301526104428161037f565b9050919050565b60006020820190508181036000830152610462816103a2565b9050919050565b60006020820190508181036000830152610482816103c5565b9050919050565b600060208201905061049e60008301846103e8565b92915050565b600081519050919050565b600081905092915050565b600082825260208201905092915050565b60006104d682610541565b91506104e183610541565b9250827fffffffffffffffffffffffffffffffffffffffffffffffffffffffffffffffff03821115610516576105156105a2565b5b828201905092915050565b600073ffffffffffffffffffffffffffffffffffffffff82169050919050565b6000819050919050565b60006105568261055d565b9050919050565b600061056882610521565b9050919050565b60005b8381101561058d578082015181840152602081019050610572565b8381111561059c576000848401525b50505050565b7f4e487b7100000000000000000000000000000000000000000000000000000000600052601160045260246000fd5b7f5072696365206973207061696420616c72656164790000000000000000000000600082015250565b7f5472616e73616374696f6e207761736e74207375636365737366756c2c20736f60008201527f2063616e63656c6c696e67000000000000000000000000000000000000000000602082015250565b7f4f6e6c792066756c6c207061796d656e747320616c6c6f77656400000000000060008201525056fea26469706673582212201124ee23cd79641d0d52af51861acf92adca235bcd311468dab15e37290622c364736f6c63430008030033",
  "immutableReferences": {},
  "source": "// SPDX-License-Identifier: Unlicensed\n\npragma solidity ^0.8.3;\n\nimport \"./ItemManager.sol\";\n\n// Take and handle payment\ncontract Item {\n    uint public priceInWei;\n    uint public pricePaid;\n    uint public index;\n    \n    ItemManager public parentContract;\n    \n    constructor(ItemManager _parentContract, uint _priceInWei, uint _index) {\n        priceInWei = _priceInWei;\n        index = _index;\n        parentContract = _parentContract; // new parentContract() not work due to circular dependency. This is reference therefore will not throw circular deoendency error\n    }\n    \n    \n    receive() external payable {\n        require(pricePaid == 0, \"Price is paid already\");\n        require(priceInWei == msg.value, \"Only full payments allowed\");\n        pricePaid += msg.value;\n        // address(parentContract).transfer(msg.value); //limited gas\n        (bool success, ) = address(parentContract).call{value: msg.value}(abi.encodeWithSignature(\"triggerPayment(uint256)\", index));\n        require(success, \"Transaction wasnt successful, so cancelling\");\n        \n    }\n    \n    fallback() external {\n        \n    }\n    \n}",
  "sourcePath": "/Users/utkarshbisht/block8/projects/solidity_contracts/ItemManager/contracts/Item.sol",
  "compiler": {
    "name": "solc",
    "version": "0.8.3+commit.8d00100c.Emscripten.clang"
  },
  "schemaVersion": "3.4.1",
  "updatedAt": "2021-06-29T07:44:29.235Z",
  "devdoc": {
    "kind": "dev",
    "methods": {},
    "version": 1
  },
  "userdoc": {
    "kind": "user",
    "methods": {},
    "version": 1
  }
}