{
  "contractName": "ItemManager",
  "abi": [
    {
      "anonymous": false,
      "inputs": [
        {
          "indexed": false,
          "internalType": "uint256",
          "name": "_itemIndex",
          "type": "uint256"
        },
        {
          "indexed": false,
          "internalType": "uint256",
          "name": "_itemPrice",
          "type": "uint256"
        },
        {
          "indexed": false,
          "internalType": "address",
          "name": "_itemAddress",
          "type": "address"
        }
      ],
      "name": "SupplyChainStep",
      "type": "event"
    },
    {
      "inputs": [],
      "name": "isOwner",
      "outputs": [
        {
          "internalType": "bool",
          "name": "",
          "type": "bool"
        }
      ],
      "stateMutability": "view",
      "type": "function",
      "constant": true
    },
    {
      "inputs": [
        {
          "internalType": "uint256",
          "name": "",
          "type": "uint256"
        }
      ],
      "name": "items",
      "outputs": [
        {
          "internalType": "contract Item",
          "name": "_item",
          "type": "address"
        },
        {
          "internalType": "string",
          "name": "_id",
          "type": "string"
        },
        {
          "internalType": "uint256",
          "name": "_itemPrice",
          "type": "uint256"
        },
        {
          "internalType": "enum ItemManager.SupplyChainState",
          "name": "_state",
          "type": "uint8"
        }
      ],
      "stateMutability": "view",
      "type": "function",
      "constant": true
    },
    {
      "inputs": [
        {
          "internalType": "string",
          "name": "_id",
          "type": "string"
        },
        {
          "internalType": "uint256",
          "name": "_itemPrice",
          "type": "uint256"
        }
      ],
      "name": "createItem",
      "outputs": [],
      "stateMutability": "nonpayable",
      "type": "function"
    },
    {
      "inputs": [
        {
          "internalType": "uint256",
          "name": "_itemindex",
          "type": "uint256"
        }
      ],
      "name": "triggerPayment",
      "outputs": [],
      "stateMutability": "payable",
      "type": "function",
      "payable": true
    },
    {
      "inputs": [
        {
          "internalType": "uint256",
          "name": "_itemindex",
          "type": "uint256"
        }
      ],
      "name": "triggerDelivery",
      "outputs": [],
      "stateMutability": "nonpayable",
      "type": "function"
    }
  ],
  "bytecode": "0x608060405234801561001057600080fd5b50336000806101000a81548173ffffffffffffffffffffffffffffffffffffffff021916908373ffffffffffffffffffffffffffffffffffffffff160217905550611aa9806100606000396000f3fe608060405260043610620000505760003560e01c8063800fb83f14620000555780638c55174214620000755780638f32d59b14620000a3578063bfb231d214620000d3578063cd31831e146200011a575b600080fd5b6200007360048036038101906200006d919062000b57565b62000148565b005b3480156200008257600080fd5b50620000a160048036038101906200009b919062000afd565b620003b9565b005b348015620000b057600080fd5b50620000bb6200060f565b604051620000ca919062000cc6565b60405180910390f35b348015620000e057600080fd5b50620000ff6004803603810190620000f9919062000b57565b62000666565b60405162000111949392919062000d20565b60405180910390f35b3480156200012757600080fd5b5062000146600480360381019062000140919062000b57565b62000753565b005b34600160008381526020019081526020016000206002015414620001a3576040517f08c379a00000000000000000000000000000000000000000000000000000000081526004016200019a9062000d74565b60405180910390fd5b60006002811115620001de577f4e487b7100000000000000000000000000000000000000000000000000000000600052602160045260246000fd5b6001600083815260200190815260200160002060030160009054906101000a900460ff1660028111156200023b577f4e487b7100000000000000000000000000000000000000000000000000000000600052602160045260246000fd5b146200027e576040517f08c379a0000000000000000000000000000000000000000000000000000000008152600401620002759062000d96565b60405180910390fd5b600180600083815260200190815260200160002060030160006101000a81548160ff02191690836002811115620002de577f4e487b7100000000000000000000000000000000000000000000000000000000600052602160045260246000fd5b02179055507fa4035636e99f06b7651a604c1019fa4e8779fe68ef27eeb74dff2de348f6199b60025460016000600254815260200190815260200160002060030160009054906101000a900460ff16600281111562000366577f4e487b7100000000000000000000000000000000000000000000000000000000600052602160045260246000fd5b6001600085815260200190815260200160002060000160009054906101000a900473ffffffffffffffffffffffffffffffffffffffff16604051620003ae9392919062000dfc565b60405180910390a150565b620003c36200060f565b62000405576040517f08c379a0000000000000000000000000000000000000000000000000000000008152600401620003fc9062000db8565b60405180910390fd5b600030826002546040516200041a90620009b6565b620004289392919062000ce3565b604051809103906000f08015801562000445573d6000803e3d6000fd5b5090508060016000600254815260200190815260200160002060000160006101000a81548173ffffffffffffffffffffffffffffffffffffffff021916908373ffffffffffffffffffffffffffffffffffffffff160217905550826001600060025481526020019081526020016000206001019080519060200190620004cd929190620009c4565b508160016000600254815260200190815260200160002060020181905550600060016000600254815260200190815260200160002060030160006101000a81548160ff021916908360028111156200054e577f4e487b7100000000000000000000000000000000000000000000000000000000600052602160045260246000fd5b02179055507fa4035636e99f06b7651a604c1019fa4e8779fe68ef27eeb74dff2de348f6199b60025460016000600254815260200190815260200160002060030160009054906101000a900460ff166002811115620005d6577f4e487b7100000000000000000000000000000000000000000000000000000000600052602160045260246000fd5b83604051620005e89392919062000dfc565b60405180910390a160026000815480929190620006059062001028565b9190505550505050565b60008060009054906101000a900473ffffffffffffffffffffffffffffffffffffffff1673ffffffffffffffffffffffffffffffffffffffff163373ffffffffffffffffffffffffffffffffffffffff1614905090565b60016020528060005260406000206000915090508060000160009054906101000a900473ffffffffffffffffffffffffffffffffffffffff1690806001018054620006b19062000fbc565b80601f0160208091040260200160405190810160405280929190818152602001828054620006df9062000fbc565b8015620007305780601f10620007045761010080835404028352916020019162000730565b820191906000526020600020905b8154815290600101906020018083116200071257829003601f168201915b5050505050908060020154908060030160009054906101000a900460ff16905084565b6200075d6200060f565b6200079f576040517f08c379a0000000000000000000000000000000000000000000000000000000008152600401620007969062000db8565b60405180910390fd5b60016002811115620007da577f4e487b7100000000000000000000000000000000000000000000000000000000600052602160045260246000fd5b6001600083815260200190815260200160002060030160009054906101000a900460ff16600281111562000837577f4e487b7100000000000000000000000000000000000000000000000000000000600052602160045260246000fd5b146200087a576040517f08c379a0000000000000000000000000000000000000000000000000000000008152600401620008719062000dda565b60405180910390fd5b60026001600083815260200190815260200160002060030160006101000a81548160ff02191690836002811115620008db577f4e487b7100000000000000000000000000000000000000000000000000000000600052602160045260246000fd5b02179055507fa4035636e99f06b7651a604c1019fa4e8779fe68ef27eeb74dff2de348f6199b60025460016000600254815260200190815260200160002060030160009054906101000a900460ff16600281111562000963577f4e487b7100000000000000000000000000000000000000000000000000000000600052602160045260246000fd5b6001600085815260200190815260200160002060000160009054906101000a900473ffffffffffffffffffffffffffffffffffffffff16604051620009ab9392919062000dfc565b60405180910390a150565b610835806200123f83390190565b828054620009d29062000fbc565b90600052602060002090601f016020900481019282620009f6576000855562000a42565b82601f1062000a1157805160ff191683800117855562000a42565b8280016001018555821562000a42579182015b8281111562000a4157825182559160200191906001019062000a24565b5b50905062000a51919062000a55565b5090565b5b8082111562000a7057600081600090555060010162000a56565b5090565b600062000a8b62000a858462000e62565b62000e39565b90508281526020810184848401111562000aa457600080fd5b62000ab184828562000f77565b509392505050565b600082601f83011262000acb57600080fd5b813562000add84826020860162000a74565b91505092915050565b60008135905062000af78162001224565b92915050565b6000806040838503121562000b1157600080fd5b600083013567ffffffffffffffff81111562000b2c57600080fd5b62000b3a8582860162000ab9565b925050602062000b4d8582860162000ae6565b9150509250929050565b60006020828403121562000b6a57600080fd5b600062000b7a8482850162000ae6565b91505092915050565b62000b8e8162000eb4565b82525050565b62000b9f8162000ec8565b82525050565b62000bb08162000f13565b82525050565b62000bc18162000f3b565b82525050565b62000bd28162000f63565b82525050565b600062000be58262000e98565b62000bf1818562000ea3565b935062000c0381856020860162000f86565b62000c0e8162001132565b840191505092915050565b600062000c28601e8362000ea3565b915062000c358262001143565b602082019050919050565b600062000c4f60188362000ea3565b915062000c5c826200116c565b602082019050919050565b600062000c7660208362000ea3565b915062000c838262001195565b602082019050919050565b600062000c9d60248362000ea3565b915062000caa82620011be565b604082019050919050565b62000cc08162000f09565b82525050565b600060208201905062000cdd600083018462000b94565b92915050565b600060608201905062000cfa600083018662000ba5565b62000d09602083018562000cb5565b62000d18604083018462000cb5565b949350505050565b600060808201905062000d37600083018762000bb6565b818103602083015262000d4b818662000bd8565b905062000d5c604083018562000cb5565b62000d6b606083018462000bc7565b95945050505050565b6000602082019050818103600083015262000d8f8162000c19565b9050919050565b6000602082019050818103600083015262000db18162000c40565b9050919050565b6000602082019050818103600083015262000dd38162000c67565b9050919050565b6000602082019050818103600083015262000df58162000c8e565b9050919050565b600060608201905062000e13600083018662000cb5565b62000e22602083018562000cb5565b62000e31604083018462000b83565b949350505050565b600062000e4562000e58565b905062000e53828262000ff2565b919050565b6000604051905090565b600067ffffffffffffffff82111562000e805762000e7f62001103565b5b62000e8b8262001132565b9050602081019050919050565b600081519050919050565b600082825260208201905092915050565b600062000ec18262000ee9565b9050919050565b60008115159050919050565b600081905062000ee4826200120d565b919050565b600073ffffffffffffffffffffffffffffffffffffffff82169050919050565b6000819050919050565b600062000f208262000f27565b9050919050565b600062000f348262000ee9565b9050919050565b600062000f488262000f4f565b9050919050565b600062000f5c8262000ee9565b9050919050565b600062000f708262000ed4565b9050919050565b82818337600083830152505050565b60005b8381101562000fa657808201518184015260208101905062000f89565b8381111562000fb6576000848401525b50505050565b6000600282049050600182168062000fd557607f821691505b6020821081141562000fec5762000feb620010d4565b5b50919050565b62000ffd8262001132565b810181811067ffffffffffffffff821117156200101f576200101e62001103565b5b80604052505050565b6000620010358262000f09565b91507fffffffffffffffffffffffffffffffffffffffffffffffffffffffffffffffff8214156200106b576200106a62001076565b5b600182019050919050565b7f4e487b7100000000000000000000000000000000000000000000000000000000600052601160045260246000fd5b7f4e487b7100000000000000000000000000000000000000000000000000000000600052602160045260246000fd5b7f4e487b7100000000000000000000000000000000000000000000000000000000600052602260045260246000fd5b7f4e487b7100000000000000000000000000000000000000000000000000000000600052604160045260246000fd5b6000601f19601f8301169050919050565b7f506c6561736520636865636b20746865207061796d656e742076616c75650000600082015250565b7f4974656d206973206e6f7420696e2074686520636861696e0000000000000000600082015250565b7f4f776e61626c653a2063616c6c6572206973206e6f7420746865206f776e6572600082015250565b7f5061796d656e7420666f7220746865206974656d206973206e6f74207965742060008201527f646f6e6500000000000000000000000000000000000000000000000000000000602082015250565b60038110620012215762001220620010a5565b5b50565b6200122f8162000f09565b81146200123b57600080fd5b5056fe608060405234801561001057600080fd5b50604051610835380380610835833981810160405281019061003291906100b3565b816000819055508060028190555082600360006101000a81548173ffffffffffffffffffffffffffffffffffffffff021916908373ffffffffffffffffffffffffffffffffffffffff16021790555050505061017e565b60008151905061009881610150565b92915050565b6000815190506100ad81610167565b92915050565b6000806000606084860312156100c857600080fd5b60006100d686828701610089565b93505060206100e78682870161009e565b92505060406100f88682870161009e565b9150509250925092565b600061010d82610126565b9050919050565b600061011f82610102565b9050919050565b600073ffffffffffffffffffffffffffffffffffffffff82169050919050565b6000819050919050565b61015981610114565b811461016457600080fd5b50565b61017081610146565b811461017b57600080fd5b50565b6106a88061018d6000396000f3fe6080604052600436106100435760003560e01c8063230b9da31461025b5780632986c0e5146102865780633c8da588146102b157806389794d00146102dc5761024c565b3661024c5760006001541461008d576040517f08c379a000000000000000000000000000000000000000000000000000000000815260040161008490610429565b60405180910390fd5b34600054146100d1576040517f08c379a00000000000000000000000000000000000000000000000000000000081526004016100c890610469565b60405180910390fd5b34600160008282546100e391906104cb565b925050819055506000600360009054906101000a900473ffffffffffffffffffffffffffffffffffffffff1673ffffffffffffffffffffffffffffffffffffffff16346002546040516024016101399190610489565b6040516020818303038152906040527f800fb83f000000000000000000000000000000000000000000000000000000007bffffffffffffffffffffffffffffffffffffffffffffffffffffffff19166020820180517bffffffffffffffffffffffffffffffffffffffffffffffffffffffff83818316178352505050506040516101c391906103f7565b60006040518083038185875af1925050503d8060008114610200576040519150601f19603f3d011682016040523d82523d6000602084013e610205565b606091505b5050905080610249576040517f08c379a000000000000000000000000000000000000000000000000000000000815260040161024090610449565b60405180910390fd5b50005b34801561025857600080fd5b50005b34801561026757600080fd5b50610270610307565b60405161027d919061040e565b60405180910390f35b34801561029257600080fd5b5061029b61032d565b6040516102a89190610489565b60405180910390f35b3480156102bd57600080fd5b506102c6610333565b6040516102d39190610489565b60405180910390f35b3480156102e857600080fd5b506102f1610339565b6040516102fe9190610489565b60405180910390f35b600360009054906101000a900473ffffffffffffffffffffffffffffffffffffffff1681565b60025481565b60005481565b60015481565b600061034a826104a4565b61035481856104af565b935061036481856020860161056f565b80840191505092915050565b6103798161054b565b82525050565b600061038c6015836104ba565b9150610397826105d1565b602082019050919050565b60006103af602b836104ba565b91506103ba826105fa565b604082019050919050565b60006103d2601a836104ba565b91506103dd82610649565b602082019050919050565b6103f181610541565b82525050565b6000610403828461033f565b915081905092915050565b60006020820190506104236000830184610370565b92915050565b600060208201905081810360008301526104428161037f565b9050919050565b60006020820190508181036000830152610462816103a2565b9050919050565b60006020820190508181036000830152610482816103c5565b9050919050565b600060208201905061049e60008301846103e8565b92915050565b600081519050919050565b600081905092915050565b600082825260208201905092915050565b60006104d682610541565b91506104e183610541565b9250827fffffffffffffffffffffffffffffffffffffffffffffffffffffffffffffffff03821115610516576105156105a2565b5b828201905092915050565b600073ffffffffffffffffffffffffffffffffffffffff82169050919050565b6000819050919050565b60006105568261055d565b9050919050565b600061056882610521565b9050919050565b60005b8381101561058d578082015181840152602081019050610572565b8381111561059c576000848401525b50505050565b7f4e487b7100000000000000000000000000000000000000000000000000000000600052601160045260246000fd5b7f5072696365206973207061696420616c72656164790000000000000000000000600082015250565b7f5472616e73616374696f6e207761736e74207375636365737366756c2c20736f60008201527f2063616e63656c6c696e67000000000000000000000000000000000000000000602082015250565b7f4f6e6c792066756c6c207061796d656e747320616c6c6f77656400000000000060008201525056fea26469706673582212201124ee23cd79641d0d52af51861acf92adca235bcd311468dab15e37290622c364736f6c63430008030033a26469706673582212202c00d4c0e61ad7152ded022793a2d3ba1fe5a524894f04313c7d720b08e747e364736f6c63430008030033",
  "immutableReferences": {},
  "source": "// SPDX-License-Identifier: Unlicensed\n\npragma solidity ^0.8.3;\n\nimport \"./Item.sol\";\nimport \"./Ownable.sol\";\n\ncontract ItemManager is Ownable {\n    \n    enum SupplyChainState {\n        CREATED, PAID, DELIVERED\n    }\n    \n    mapping(uint => S_Item) public items;\n    uint itemIndex;\n    \n    struct S_Item {\n        Item _item;\n        string _id;\n        uint _itemPrice;\n        SupplyChainState _state;\n    }\n    \n    event SupplyChainStep(uint _itemIndex, uint _itemPrice, address _itemAddress);\n    \n    \n    function createItem(string memory _id, uint _itemPrice) public onlyOwner{\n        Item item = new Item(this, _itemPrice, itemIndex);\n        items[itemIndex]._item = item;\n        items[itemIndex]._id = _id;\n        items[itemIndex]._itemPrice = _itemPrice;\n        items[itemIndex]._state = SupplyChainState.CREATED;\n        emit SupplyChainStep(itemIndex, uint(items[itemIndex]._state), address(item));\n        itemIndex++;\n    }\n    \n    function triggerPayment(uint _itemindex) public payable{\n        require(items[_itemindex]._itemPrice ==msg.value, \"Please check the payment value\");\n        require(items[_itemindex]._state == SupplyChainState.CREATED, \"Item is not in the chain\");\n        items[_itemindex]._state = SupplyChainState.PAID;\n        emit SupplyChainStep(itemIndex, uint(items[itemIndex]._state), address(items[_itemindex]._item));\n\n    }\n    \n    function triggerDelivery(uint _itemindex) public onlyOwner{\n        require(items[_itemindex]._state == SupplyChainState.PAID, \"Payment for the item is not yet done\");\n        items[_itemindex]._state = SupplyChainState.DELIVERED;\n        emit SupplyChainStep(itemIndex, uint(items[itemIndex]._state), address(items[_itemindex]._item));\n\n    }\n}",
  "sourcePath": "/Users/utkarshbisht/block8/projects/solidity_contracts/ItemManager/contracts/ItemManager.sol",
  "compiler": {
    "name": "solc",
    "version": "0.8.3+commit.8d00100c.Emscripten.clang"
  },
  "schemaVersion": "3.4.1",
  "updatedAt": "2021-06-29T16:26:43.750Z",
  "networkType": "ethereum",
  "devdoc": {
    "kind": "dev",
    "methods": {},
    "version": 1
  },
  "userdoc": {
    "kind": "user",
    "methods": {},
    "version": 1
  }
}